{
  "contractName": "FourierSolutions",
  "abi": [
    {
      "constant": true,
      "inputs": [],
      "name": "getFourierBalance",
      "outputs": [
        {
          "name": "_balance",
          "type": "uint256"
        }
      ],
      "payable": false,
      "stateMutability": "view",
      "type": "function"
    },
    {
      "constant": true,
      "inputs": [
        {
          "name": "_retailerId",
          "type": "uint256"
        }
      ],
      "name": "getNumTransactions",
      "outputs": [
        {
          "name": "_numTransactions",
          "type": "uint256"
        }
      ],
      "payable": false,
      "stateMutability": "view",
      "type": "function"
    },
    {
      "constant": true,
      "inputs": [
        {
          "name": "_retailerId",
          "type": "uint256"
        }
      ],
      "name": "getRetailerBalance",
      "outputs": [
        {
          "name": "_balance",
          "type": "uint256"
        }
      ],
      "payable": false,
      "stateMutability": "view",
      "type": "function"
    },
    {
      "constant": false,
      "inputs": [
        {
          "name": "_retailerId",
          "type": "uint256"
        },
        {
          "name": "_fourierCut",
          "type": "uint256"
        },
        {
          "name": "_retailerCut",
          "type": "uint256"
        },
        {
          "name": "_costInUSD",
          "type": "string"
        }
      ],
      "name": "payRetailer",
      "outputs": [],
      "payable": true,
      "stateMutability": "payable",
      "type": "function"
    },
    {
      "constant": true,
      "inputs": [
        {
          "name": "_retailerId",
          "type": "uint256"
        },
        {
          "name": "_transactionId",
          "type": "uint256"
        }
      ],
      "name": "getTransaction",
      "outputs": [
        {
          "name": "_time",
          "type": "uint256"
        },
        {
          "name": "_costInWei",
          "type": "uint256"
        },
        {
          "name": "_fourierCut",
          "type": "uint256"
        },
        {
          "name": "_retailerCut",
          "type": "uint256"
        },
        {
          "name": "_costInUSD",
          "type": "string"
        }
      ],
      "payable": false,
      "stateMutability": "view",
      "type": "function"
    },
    {
      "constant": false,
      "inputs": [
        {
          "name": "_retailerName",
          "type": "string"
        }
      ],
      "name": "registerRetailer",
      "outputs": [],
      "payable": false,
      "stateMutability": "nonpayable",
      "type": "function"
    },
    {
      "constant": false,
      "inputs": [
        {
          "name": "_retailerId",
          "type": "uint256"
        },
        {
          "name": "_amount",
          "type": "uint256"
        }
      ],
      "name": "retailerWithdraw",
      "outputs": [],
      "payable": false,
      "stateMutability": "nonpayable",
      "type": "function"
    },
    {
      "constant": false,
      "inputs": [
        {
          "name": "_amount",
          "type": "uint256"
        }
      ],
      "name": "fourierWithdraw",
      "outputs": [],
      "payable": false,
      "stateMutability": "nonpayable",
      "type": "function"
    },
    {
      "constant": true,
      "inputs": [
        {
          "name": "_retailerId",
          "type": "uint256"
        }
      ],
      "name": "getRetailer",
      "outputs": [
        {
          "name": "_retailerName",
          "type": "string"
        },
        {
          "name": "_balance",
          "type": "uint256"
        },
        {
          "name": "_retailerOwner",
          "type": "address"
        },
        {
          "name": "_numTransactions",
          "type": "uint256"
        }
      ],
      "payable": false,
      "stateMutability": "view",
      "type": "function"
    },
    {
      "constant": true,
      "inputs": [],
      "name": "owner",
      "outputs": [
        {
          "name": "",
          "type": "address"
        }
      ],
      "payable": false,
      "stateMutability": "view",
      "type": "function"
    },
    {
      "constant": false,
      "inputs": [
        {
          "name": "_newOwner",
          "type": "address"
        }
      ],
      "name": "changeOwner",
      "outputs": [],
      "payable": false,
      "stateMutability": "nonpayable",
      "type": "function"
    },
    {
      "constant": true,
      "inputs": [],
      "name": "numRetailers",
      "outputs": [
        {
          "name": "",
          "type": "uint256"
        }
      ],
      "payable": false,
      "stateMutability": "view",
      "type": "function"
    },
    {
      "constant": true,
      "inputs": [
        {
          "name": "_retailerName",
          "type": "string"
        }
      ],
      "name": "getRetailerByName",
      "outputs": [
        {
          "name": "_retailerId",
          "type": "uint256"
        },
        {
          "name": "_balance",
          "type": "uint256"
        },
        {
          "name": "_retailerOwner",
          "type": "address"
        },
        {
          "name": "_numTransactions",
          "type": "uint256"
        }
      ],
      "payable": false,
      "stateMutability": "view",
      "type": "function"
    },
    {
      "anonymous": false,
      "inputs": [
        {
          "indexed": true,
          "name": "owner",
          "type": "address"
        },
        {
          "indexed": false,
          "name": "retailerName",
          "type": "string"
        },
        {
          "indexed": false,
          "name": "retailerId",
          "type": "uint256"
        }
      ],
      "name": "RetailerRegistered",
      "type": "event"
    },
    {
      "anonymous": false,
      "inputs": [
        {
          "indexed": true,
          "name": "sender",
          "type": "address"
        },
        {
          "indexed": true,
          "name": "retailerId",
          "type": "uint256"
        },
        {
          "indexed": false,
          "name": "amount",
          "type": "uint256"
        },
        {
          "indexed": false,
          "name": "transactionId",
          "type": "uint256"
        }
      ],
      "name": "TransactionReceived",
      "type": "event"
    },
    {
      "anonymous": false,
      "inputs": [
        {
          "indexed": true,
          "name": "retailerId",
          "type": "uint256"
        },
        {
          "indexed": false,
          "name": "amount",
          "type": "uint256"
        }
      ],
      "name": "RetailerWithdrawal",
      "type": "event"
    },
    {
      "anonymous": false,
      "inputs": [
        {
          "indexed": false,
          "name": "amount",
          "type": "uint256"
        }
      ],
      "name": "FourierWithdrawal",
      "type": "event"
    }
  ],
  "bytecode": "0x6060604052336000806101000a81548173ffffffffffffffffffffffffffffffffffffffff021916908373ffffffffffffffffffffffffffffffffffffffff1602179055506115e8806100536000396000f3006060604052600436106100c5576000357c0100000000000000000000000000000000000000000000000000000000900463ffffffff16806322b27291146100ca578063251461c1146100f357806348b228171461012a57806367b0a786146101615780637303f6ce146101ce578063754f77db1461028f57806380a94b2c146102ec578063873dc5e61461031857806389d86c5d1461033b5780638da5cb5b14610418578063a6f9dae11461046d578063bcebf214146104a6578063c6f5054e146104cf575b600080fd5b34156100d557600080fd5b6100dd610581565b6040518082815260200191505060405180910390f35b34156100fe57600080fd5b61011460048080359060200190919050506105e6565b6040518082815260200191505060405180910390f35b341561013557600080fd5b61014b6004808035906020019091905050610603565b6040518082815260200191505060405180910390f35b6101cc600480803590602001909190803590602001909190803590602001909190803590602001908201803590602001908080601f01602080910402602001604051908101604052809392919081815260200183838082843782019150505050505091905050610623565b005b34156101d957600080fd5b6101f8600480803590602001909190803590602001909190505061081d565b6040518086815260200185815260200184815260200183815260200180602001828103825283818151815260200191508051906020019080838360005b83811015610250578082015181840152602081019050610235565b50505050905090810190601f16801561027d5780820380516001836020036101000a031916815260200191505b50965050505050505060405180910390f35b341561029a57600080fd5b6102ea600480803590602001908201803590602001908080601f01602080910402602001604051908101604052809392919081815260200183838082843782019150505050505091905050610967565b005b34156102f757600080fd5b6103166004808035906020019091908035906020019091905050610c3b565b005b341561032357600080fd5b6103396004808035906020019091905050610e9f565b005b341561034657600080fd5b61035c6004808035906020019091905050610fd9565b60405180806020018581526020018473ffffffffffffffffffffffffffffffffffffffff1673ffffffffffffffffffffffffffffffffffffffff168152602001838152602001828103825286818151815260200191508051906020019080838360005b838110156103da5780820151818401526020810190506103bf565b50505050905090810190601f1680156104075780820380516001836020036101000a031916815260200191505b509550505050505060405180910390f35b341561042357600080fd5b61042b611149565b604051808273ffffffffffffffffffffffffffffffffffffffff1673ffffffffffffffffffffffffffffffffffffffff16815260200191505060405180910390f35b341561047857600080fd5b6104a4600480803573ffffffffffffffffffffffffffffffffffffffff1690602001909190505061116e565b005b34156104b157600080fd5b6104b961120c565b6040518082815260200191505060405180910390f35b34156104da57600080fd5b61052a600480803590602001908201803590602001908080601f01602080910402602001604051908101604052809392919081815260200183838082843782019150505050505091905050611212565b604051808581526020018481526020018373ffffffffffffffffffffffffffffffffffffffff1673ffffffffffffffffffffffffffffffffffffffff16815260200182815260200194505050505060405180910390f35b60008060009054906101000a900473ffffffffffffffffffffffffffffffffffffffff1673ffffffffffffffffffffffffffffffffffffffff163373ffffffffffffffffffffffffffffffffffffffff161415156105de57600080fd5b600754905090565b600060066000838152602001908152602001600020549050919050565b600060016000838152602001908152602001600020600201549050919050565b6000803411151561063357600080fd5b8284013414151561064357600080fd5b6000841180156106535750600083115b151561065e57600080fd5b6001600086815260200190815260200160002090506000816001015411151561068657600080fd5b80600201543482600201540111151561069e57600080fd5b6001600660008781526020019081526020016000206000828254019250508190555060c060405190810160405280600660008881526020019081526020016000205481526020014281526020013481526020018581526020018481526020018381525060046000878152602001908152602001600020600060066000898152602001908152602001600020548152602001908152602001600020600082015181600001556020820151816001015560408201518160020155606082015181600301556080820151816004015560a08201518160050190805190602001906107869291906113e6565b5090505082816002016000828254019250508190555083600760008282540192505081905550843373ffffffffffffffffffffffffffffffffffffffff167f8bd8abcaa4fc9d567790dc98ae89fdfe5797022af0f5eeeda35a2780707bd87434600660008a815260200190815260200160002054604051808381526020018281526020019250505060405180910390a35050505050565b60008060008061082b611466565b61083361147a565b60046000898152602001908152602001600020600088815260200190815260200160002060c060405190810160405290816000820154815260200160018201548152602001600282015481526020016003820154815260200160048201548152602001600582018054600181600116156101000203166002900480601f01602080910402602001604051908101604052809291908181526020018280546001816001161561010002031660029004801561092e5780601f106109035761010080835404028352916020019161092e565b820191906000526020600020905b81548152906001019060200180831161091157829003601f168201915b5050505050815250509050806020015195508060400151945080606001519350806080015192508060a001519150509295509295909350565b6000815111151561097757600080fd5b60006003826040518082805190602001908083835b6020831015156109b1578051825260208201915060208101905060208303925061098c565b6001836020036101000a0380198251168184511680821785525050505050509050019150509081526020016040518091039020541415156109f157600080fd5b60056000815480929190600101919050555060a0604051908101604052808281526020016005548152602001600081526020013373ffffffffffffffffffffffffffffffffffffffff16815260200160008152506001600060055481526020019081526020016000206000820151816000019080519060200190610a769291906113e6565b50602082015181600101556040820151816002015560608201518160030160006101000a81548173ffffffffffffffffffffffffffffffffffffffff021916908373ffffffffffffffffffffffffffffffffffffffff16021790555060808201518160040155905050806002600060055481526020019081526020016000209080519060200190610b089291906114b7565b506005546003826040518082805190602001908083835b602083101515610b445780518252602082019150602081019050602083039250610b1f565b6001836020036101000a0380198251168184511680821785525050505050509050019150509081526020016040518091039020819055503373ffffffffffffffffffffffffffffffffffffffff167f8f5fd863d8834d810c307a2cf5c3371e6ec871a34372594172341b57bbeefba0826005546040518080602001838152602001828103825284818151815260200191508051906020019080838360005b83811015610bfd578082015181840152602081019050610be2565b50505050905090810190601f168015610c2a5780820380516001836020036101000a031916815260200191505b50935050505060405180910390a250565b610c43611537565b6001600084815260200190815260200160002060a06040519081016040529081600082018054600181600116156101000203166002900480601f016020809104026020016040519081016040528092919081815260200182805460018160011615610100020316600290048015610cfb5780601f10610cd057610100808354040283529160200191610cfb565b820191906000526020600020905b815481529060010190602001808311610cde57829003601f168201915b5050505050815260200160018201548152602001600282015481526020016003820160009054906101000a900473ffffffffffffffffffffffffffffffffffffffff1673ffffffffffffffffffffffffffffffffffffffff1673ffffffffffffffffffffffffffffffffffffffff1681526020016004820154815250509050600082118015610d8a5750600083115b1515610d9557600080fd5b81816040015110151515610da857600080fd5b806040015182826040015103101515610dc057600080fd5b3373ffffffffffffffffffffffffffffffffffffffff16816060015173ffffffffffffffffffffffffffffffffffffffff16141515610dfe57600080fd5b8160016000858152602001908152602001600020600201600082825403925050819055503373ffffffffffffffffffffffffffffffffffffffff166108fc839081150290604051600060405180830381858888f193505050501515610e6257600080fd5b827f9ff7e1720275fb32e1eb8cc1921f1527978e4b3d5bd577aa3630740c78a5e65f836040518082815260200191505060405180910390a2505050565b6000809054906101000a900473ffffffffffffffffffffffffffffffffffffffff1673ffffffffffffffffffffffffffffffffffffffff163373ffffffffffffffffffffffffffffffffffffffff16141515610efa57600080fd5b600081111515610f0957600080fd5b8060075410151515610f1a57600080fd5b6007548160075403101515610f2e57600080fd5b806007600082825403925050819055506000809054906101000a900473ffffffffffffffffffffffffffffffffffffffff1673ffffffffffffffffffffffffffffffffffffffff166108fc829081150290604051600060405180830381858888f193505050501515610f9f57600080fd5b7f4b694a1d9ed8ba48850b2d26fdfdc5a6f1e16a27c22b46410f5c86e52756f19e816040518082815260200191505060405180910390a150565b610fe1611466565b6000806000610fee611537565b6001600087815260200190815260200160002060a06040519081016040529081600082018054600181600116156101000203166002900480601f0160208091040260200160405190810160405280929190818152602001828054600181600116156101000203166002900480156110a65780601f1061107b576101008083540402835291602001916110a6565b820191906000526020600020905b81548152906001019060200180831161108957829003601f168201915b5050505050815260200160018201548152602001600282015481526020016003820160009054906101000a900473ffffffffffffffffffffffffffffffffffffffff1673ffffffffffffffffffffffffffffffffffffffff1673ffffffffffffffffffffffffffffffffffffffff168152602001600482015481525050905080600001519450806040015193508060600151925080608001519150509193509193565b6000809054906101000a900473ffffffffffffffffffffffffffffffffffffffff1681565b6000809054906101000a900473ffffffffffffffffffffffffffffffffffffffff1673ffffffffffffffffffffffffffffffffffffffff163373ffffffffffffffffffffffffffffffffffffffff161415156111c957600080fd5b806000806101000a81548173ffffffffffffffffffffffffffffffffffffffff021916908373ffffffffffffffffffffffffffffffffffffffff16021790555050565b60055481565b600080600080611220611537565b600160006003886040518082805190602001908083835b60208310151561125c5780518252602082019150602081019050602083039250611237565b6001836020036101000a038019825116818451168082178552505050505050905001915050908152602001604051809103902054815260200190815260200160002060a06040519081016040529081600082018054600181600116156101000203166002900480601f0160208091040260200160405190810160405280929190818152602001828054600181600116156101000203166002900480156113435780601f1061131857610100808354040283529160200191611343565b820191906000526020600020905b81548152906001019060200180831161132657829003601f168201915b5050505050815260200160018201548152602001600282015481526020016003820160009054906101000a900473ffffffffffffffffffffffffffffffffffffffff1673ffffffffffffffffffffffffffffffffffffffff1673ffffffffffffffffffffffffffffffffffffffff168152602001600482015481525050905080602001519450806040015193508060600151925080608001519150509193509193565b828054600181600116156101000203166002900490600052602060002090601f016020900481019282601f1061142757805160ff1916838001178555611455565b82800160010185558215611455579182015b82811115611454578251825591602001919060010190611439565b5b5090506114629190611583565b5090565b602060405190810160405280600081525090565b60c06040519081016040528060008152602001600081526020016000815260200160008152602001600081526020016114b16115a8565b81525090565b828054600181600116156101000203166002900490600052602060002090601f016020900481019282601f106114f857805160ff1916838001178555611526565b82800160010185558215611526579182015b8281111561152557825182559160200191906001019061150a565b5b5090506115339190611583565b5090565b60a06040519081016040528061154b6115a8565b81526020016000815260200160008152602001600073ffffffffffffffffffffffffffffffffffffffff168152602001600081525090565b6115a591905b808211156115a1576000816000905550600101611589565b5090565b90565b6020604051908101604052806000815250905600a165627a7a72305820f32d1d1514f95a5ada443f6b4f4df2beaf0af75ce0d3b69610d8d4579e2de4110029",
  "source": "pragma solidity ^0.4.18;\n\nimport \"./Ownable.sol\";\n\n/**\n * @title FourierSolutions\n * @dev Contract for FourierSolutions payment model\n */\ncontract FourierSolutions is Ownable{\n\n    struct Retailer {\n        string name;\n        uint id;\n        // balance in wei\n        uint balance;\n        address retailerOwner;\n        uint numTransactions;\n    }\n\n    struct Transaction {\n        uint transactionId;\n        uint time;\n        uint totalCostInWei;\n        uint fourierCut;\n        uint retailerCut;\n        string costInUSD;\n    }\n\n    // Mapping of retailer id to retailers\n    mapping (uint => Retailer) retailerMapping;\n    // Also allows users to find the name of a retailer from the id\n    mapping (uint => string) retailerNameMapping;\n    // Mapping to find the id of a retailer from the name\n    mapping (string => uint) retailerIdMapping;\n\n    // Mapping of retailer id to transaction id\n    mapping (uint => mapping (uint => Transaction)) transactionMapping;\n\n    // Number to keep track of the # of retailers as well as set new retailer ids\n    uint public numRetailers;\n    // Mapping of retailer id to number of transactions for that retailer\n    mapping (uint => uint) numTransactions;\n\n    // FourierSolution's balance\n    uint fourierSolutionsBalance;\n\n    // EVENTS\n    event RetailerRegistered(address indexed owner, string retailerName, uint retailerId);\n    event TransactionReceived(address indexed sender, uint indexed retailerId, uint amount, uint transactionId);\n    event RetailerWithdrawal(uint indexed retailerId, uint amount);\n    event FourierWithdrawal(uint amount);\n\n\n    /**\n     * @dev Function to register a retailer with fourier solutions\n     * @param _retailerName string the name that the retailer wishes to use\n     */\n    function registerRetailer(string _retailerName) public {\n\n        // Some checking\n        require(bytes(_retailerName).length > 0);\n        require(retailerIdMapping[_retailerName] == 0);\n\n        // Increment the num retailers counter to set custom id for new retailer\n        numRetailers++;\n\n        // Create the retailer and assign it in the mapping\n        retailerMapping[numRetailers] = Retailer({\n            name: _retailerName,\n            id: numRetailers,\n            balance: 0,\n            retailerOwner: msg.sender,\n            numTransactions: 0\n        });\n\n        // Set the name to id\n        retailerNameMapping[numRetailers] = _retailerName;\n        // Set the id to name\n        retailerIdMapping[_retailerName] = numRetailers;\n\n        // Emit the event\n        RetailerRegistered(msg.sender, _retailerName, numRetailers);\n\n    }\n\n    /**\n     * @dev Function used to create a transaction where a customer pays a retailer\n     * @param _retailerId uint id of the retailer that is being paid.\n     * @param _fourierCut uint fee that is charged by fourier\n     * @param _retailerCut uint amount that is given to the retailer\n     * @param _costInUSD string amount in USD that the transaction is charging\n     */\n    function payRetailer(uint _retailerId, uint _fourierCut, uint _retailerCut, string _costInUSD) public payable {\n\n        // Make sure that the payment amounts add up\n        require(msg.value > 0);\n        require(msg.value == _fourierCut + _retailerCut);\n        require(_fourierCut > 0 && _retailerCut > 0);\n\n        // Get a storage pointer to the retailer\n        Retailer storage retailer = retailerMapping[_retailerId];\n\n        // Make sure that the retailer exists\n        require(retailer.id > 0);\n        // Overflow protection\n        require(retailer.balance + msg.value > retailer.balance);\n\n        // Increment the number of transactions this retailer owns\n        numTransactions[_retailerId] += 1;\n        transactionMapping[_retailerId][numTransactions[_retailerId]] = Transaction({\n            transactionId: numTransactions[_retailerId],\n            time: now,\n            totalCostInWei: msg.value,\n            fourierCut: _fourierCut,\n            retailerCut: _retailerCut,\n            costInUSD: _costInUSD\n        });\n\n        // Add the balance to the retailer\n        retailer.balance += _retailerCut;\n        // Add the balance to fourier solutions\n        fourierSolutionsBalance += _fourierCut;\n\n        // Fire the event that we have received a transaction\n        TransactionReceived(msg.sender, _retailerId, msg.value, numTransactions[_retailerId]);\n\n    }\n\n    /**\n     * @dev Function for retailers to withdraw their funds from the contract\n     * @param _retailerId uint id of the retailer.\n     * @param _amount uint amount that the retailer wishes to withdraw\n     */\n    function retailerWithdraw(uint _retailerId, uint _amount) external {\n\n        Retailer memory retailer = retailerMapping[_retailerId];\n\n        // Make sure the numbers add up\n        require(_amount > 0 && _retailerId > 0);\n        require(retailer.balance >= _amount);\n        // overflow check\n        require(retailer.balance - _amount < retailer.balance);\n        require(retailer.retailerOwner == msg.sender);\n\n        // Subtract the amount first\n        retailerMapping[_retailerId].balance -= _amount;\n\n        // If everything is good then transfer that amount over to the retailer owner\n        msg.sender.transfer(_amount);\n\n        // Emit the event\n        RetailerWithdrawal(_retailerId, _amount);\n\n    }\n\n    /**\n     * @dev Function for Fourier Solutions to withdraw their funds from the contract\n     * @param _amount uint amount that is to be withdrawn\n     */\n    function fourierWithdraw(uint _amount) onlyOwner external {\n\n        require(_amount > 0);\n        require(fourierSolutionsBalance >= _amount);\n        // overflow check\n        require(fourierSolutionsBalance - _amount < fourierSolutionsBalance);\n\n        // Subtract the amount first\n        fourierSolutionsBalance -= _amount;\n\n        // If everything is good then transfer the amount ot fourier solutions\n        owner.transfer(_amount);\n\n        // Emit the event\n        FourierWithdrawal(_amount);\n\n    }\n\n\n\n    // HELPER METHODS\n\n    /**\n     * @dev Function to get the retailer details from it's id\n     * @param _retailerId the id of the retailer\n     */\n    function getRetailer(uint _retailerId) public constant returns (\n        string _retailerName,\n        uint _balance,\n        address _retailerOwner,\n        uint _numTransactions\n    ) {\n\n        Retailer memory retailer = retailerMapping[_retailerId];\n\n        _retailerName = retailer.name;\n        _balance = retailer.balance;\n        _retailerOwner = retailer.retailerOwner;\n        _numTransactions = retailer.numTransactions;\n\n    }\n\n    /**\n     * @dev Function to get the retailer details from it's id\n     * @param _retailerName the name of the retailer\n     */\n    function getRetailerByName(string _retailerName) public constant returns (\n        uint _retailerId,\n        uint _balance,\n        address _retailerOwner,\n        uint _numTransactions\n    ) {\n\n        Retailer memory retailer = retailerMapping[retailerIdMapping[_retailerName]];\n\n        _retailerId = retailer.id;\n        _balance = retailer.balance;\n        _retailerOwner = retailer.retailerOwner;\n        _numTransactions = retailer.numTransactions;\n\n    }\n\n    /**\n     * @dev Function to get the retailer's current balance\n     * @param _retailerId the id of the retailer\n     */\n    function getRetailerBalance(uint _retailerId) public constant returns (uint _balance) {\n        return retailerMapping[_retailerId].balance;\n    }\n\n    /**\n     * @dev Function to get FourierSolution's balance. Only callable by fourier solutions\n     */\n    function getFourierBalance() onlyOwner public constant returns (uint _balance) {\n        return fourierSolutionsBalance;\n    }\n\n    /**\n     * @dev Function to get the total number of transactions a retailer has incurred\n     * @param _retailerId the id of the retailer\n     */\n    function getNumTransactions(uint _retailerId) public constant returns (uint _numTransactions) {\n        return numTransactions[_retailerId];\n    }\n\n    /**\n     * @dev Used to get a certain transaction for a retailer. This can be used with the getNumTransactions\n     *      method to fetch a list of most current transactions.\n     * @param _retailerId uint the id of the retailer that needs to be searched up\n     * @param _transactionId uint the specific id of the transaction you are looking for\n     */\n    function getTransaction(uint _retailerId, uint _transactionId) public constant returns (\n        uint _time,\n        uint _costInWei,\n        uint _fourierCut,\n        uint _retailerCut,\n        string _costInUSD\n    ) {\n\n        Transaction memory transaction = transactionMapping[_retailerId][_transactionId];\n\n        _time = transaction.time;\n        _costInWei = transaction.totalCostInWei;\n        _fourierCut = transaction.fourierCut;\n        _retailerCut = transaction.retailerCut;\n        _costInUSD = transaction.costInUSD;\n\n    }\n\n}\n",
  "sourcePath": "/Users/WilliamHuang/Developer/Job-Development/Fourier/Fourier Solutions/contracts/FourierSolutions.sol",
  "compiler": {
    "name": "solc",
    "version": "0.4.18+commit.9cf6e910.Emscripten.clang"
  },
  "schemaVersion": "1.0.1",
  "updatedAt": "2018-02-02T02:04:48.643Z"
}