{
  "contractName": "Retailer",
  "abi": [
    {
      "constant": true,
      "inputs": [],
      "name": "getFourierBalance",
      "outputs": [
        {
          "name": "_balance",
          "type": "uint256"
        }
      ],
      "payable": false,
      "stateMutability": "view",
      "type": "function"
    },
    {
      "constant": true,
      "inputs": [],
      "name": "getNumTransactions",
      "outputs": [
        {
          "name": "",
          "type": "uint256"
        }
      ],
      "payable": false,
      "stateMutability": "view",
      "type": "function"
    },
    {
      "constant": false,
      "inputs": [
        {
          "name": "_amount",
          "type": "uint256"
        }
      ],
      "name": "fourierWithdraw",
      "outputs": [],
      "payable": false,
      "stateMutability": "nonpayable",
      "type": "function"
    },
    {
      "constant": true,
      "inputs": [],
      "name": "owner",
      "outputs": [
        {
          "name": "",
          "type": "address"
        }
      ],
      "payable": false,
      "stateMutability": "view",
      "type": "function"
    },
    {
      "constant": false,
      "inputs": [],
      "name": "payRetailer",
      "outputs": [],
      "payable": true,
      "stateMutability": "payable",
      "type": "function"
    },
    {
      "constant": false,
      "inputs": [
        {
          "name": "_newOwner",
          "type": "address"
        }
      ],
      "name": "changeOwner",
      "outputs": [],
      "payable": false,
      "stateMutability": "nonpayable",
      "type": "function"
    },
    {
      "constant": true,
      "inputs": [],
      "name": "retailerId",
      "outputs": [
        {
          "name": "",
          "type": "uint256"
        }
      ],
      "payable": false,
      "stateMutability": "view",
      "type": "function"
    },
    {
      "constant": true,
      "inputs": [],
      "name": "retailerName",
      "outputs": [
        {
          "name": "",
          "type": "string"
        }
      ],
      "payable": false,
      "stateMutability": "view",
      "type": "function"
    },
    {
      "inputs": [
        {
          "name": "_retailerId",
          "type": "uint256"
        },
        {
          "name": "_retailerName",
          "type": "string"
        }
      ],
      "payable": false,
      "stateMutability": "nonpayable",
      "type": "constructor"
    },
    {
      "payable": true,
      "stateMutability": "payable",
      "type": "fallback"
    },
    {
      "anonymous": false,
      "inputs": [
        {
          "indexed": true,
          "name": "retailerId",
          "type": "uint256"
        },
        {
          "indexed": false,
          "name": "transactionId",
          "type": "uint256"
        },
        {
          "indexed": false,
          "name": "amount",
          "type": "uint256"
        },
        {
          "indexed": false,
          "name": "sender",
          "type": "address"
        }
      ],
      "name": "TransactionReceived",
      "type": "event"
    },
    {
      "anonymous": false,
      "inputs": [
        {
          "indexed": false,
          "name": "amount",
          "type": "uint256"
        }
      ],
      "name": "FourierWithdrawal",
      "type": "event"
    }
  ],
  "bytecode": "0x6060604052341561000f57600080fd5b60405161077738038061077783398101604052808051906020019091908051820191905050336000806101000a81548173ffffffffffffffffffffffffffffffffffffffff021916908373ffffffffffffffffffffffffffffffffffffffff160217905550816002819055508060019080519060200190610091929190610099565b50505061013e565b828054600181600116156101000203166002900490600052602060002090601f016020900481019282601f106100da57805160ff1916838001178555610108565b82800160010185558215610108579182015b828111156101075782518255916020019190600101906100ec565b5b5090506101159190610119565b5090565b61013b91905b8082111561013757600081600090555060010161011f565b5090565b90565b61062a8061014d6000396000f30060606040526004361061008e576000357c0100000000000000000000000000000000000000000000000000000000900463ffffffff16806322b27291146100985780634cf32de3146100c1578063873dc5e6146100ea5780638da5cb5b1461010d578063a5c72c2014610162578063a6f9dae11461016c578063d88da486146101a5578063e0305f84146101ce575b61009661025c565b005b34156100a357600080fd5b6100ab6102e8565b6040518082815260200191505060405180910390f35b34156100cc57600080fd5b6100d4610362565b6040518082815260200191505060405180910390f35b34156100f557600080fd5b61010b600480803590602001909190505061036c565b005b341561011857600080fd5b610120610497565b604051808273ffffffffffffffffffffffffffffffffffffffff1673ffffffffffffffffffffffffffffffffffffffff16815260200191505060405180910390f35b61016a61025c565b005b341561017757600080fd5b6101a3600480803573ffffffffffffffffffffffffffffffffffffffff169060200190919050506104bc565b005b34156101b057600080fd5b6101b861055a565b6040518082815260200191505060405180910390f35b34156101d957600080fd5b6101e1610560565b6040518080602001828103825283818151815260200191508051906020019080838360005b83811015610221578082015181840152602081019050610206565b50505050905090810190601f16801561024e5780820380516001836020036101000a031916815260200191505b509250505060405180910390f35b6003600081548092919060010191905055506002547f091067d64cf49c09b3bb1ece4d4ec072e3e57539ca64d65e9fd6ea3aba26cb5f6003543433604051808481526020018381526020018273ffffffffffffffffffffffffffffffffffffffff1673ffffffffffffffffffffffffffffffffffffffff168152602001935050505060405180910390a2565b60008060009054906101000a900473ffffffffffffffffffffffffffffffffffffffff1673ffffffffffffffffffffffffffffffffffffffff163373ffffffffffffffffffffffffffffffffffffffff1614151561034557600080fd5b3073ffffffffffffffffffffffffffffffffffffffff1631905090565b6000600354905090565b6000809054906101000a900473ffffffffffffffffffffffffffffffffffffffff1673ffffffffffffffffffffffffffffffffffffffff163373ffffffffffffffffffffffffffffffffffffffff161415156103c757600080fd5b6000811115156103d657600080fd5b803073ffffffffffffffffffffffffffffffffffffffff1631101515156103fc57600080fd5b6000809054906101000a900473ffffffffffffffffffffffffffffffffffffffff1673ffffffffffffffffffffffffffffffffffffffff166108fc829081150290604051600060405180830381858888f19350505050151561045d57600080fd5b7f4b694a1d9ed8ba48850b2d26fdfdc5a6f1e16a27c22b46410f5c86e52756f19e816040518082815260200191505060405180910390a150565b6000809054906101000a900473ffffffffffffffffffffffffffffffffffffffff1681565b6000809054906101000a900473ffffffffffffffffffffffffffffffffffffffff1673ffffffffffffffffffffffffffffffffffffffff163373ffffffffffffffffffffffffffffffffffffffff1614151561051757600080fd5b806000806101000a81548173ffffffffffffffffffffffffffffffffffffffff021916908373ffffffffffffffffffffffffffffffffffffffff16021790555050565b60025481565b60018054600181600116156101000203166002900480601f0160208091040260200160405190810160405280929190818152602001828054600181600116156101000203166002900480156105f65780601f106105cb576101008083540402835291602001916105f6565b820191906000526020600020905b8154815290600101906020018083116105d957829003601f168201915b5050505050815600a165627a7a723058201e81fc514dd856b8a9d074f6ef52f0979e3ec3bbd901d49240fed6f48351e8be0029",
  "source": "pragma solidity ^0.4.18;\n\nimport \"./Ownable.sol\";\n\n/**\n * @title Retailer\n * @dev Contract for a single retailer\n */\ncontract Retailer is Ownable {\n\n    string public retailerName;\n    uint public retailerId;\n\n    uint numTransactions;\n\n    // EVENTS\n    event TransactionReceived(uint indexed retailerId, uint transactionId, uint amount, address sender);\n    event FourierWithdrawal(uint amount);\n\n    function Retailer(uint _retailerId, string _retailerName) public {\n        retailerId = _retailerId;\n        retailerName = _retailerName;\n    }\n\n    function payRetailer() public payable {\n        numTransactions++;\n        TransactionReceived(retailerId, numTransactions, msg.value, msg.sender);\n    }\n\n    function () public payable {\n        payRetailer();\n    }\n\n    /**\n     * @dev Function for Fourier Solutions to withdraw their funds from the contract\n     * @param _amount uint amount that is to be withdrawn\n     */\n    function fourierWithdraw(uint _amount) onlyOwner external {\n\n        require(_amount > 0);\n        require(this.balance >= _amount);\n\n        // If everything is good then transfer the amount ot fourier solutions\n        owner.transfer(_amount);\n\n        // Emit the event\n        FourierWithdrawal(_amount);\n\n    }\n\n    // HELPER METHODS\n\n    /**\n    * @dev Function to get FourierSolution's balance. Only callable by fourier solutions\n    */\n    function getFourierBalance() onlyOwner public constant returns (uint _balance) {\n        return this.balance;\n    }\n\n    /**\n     * @dev Function to get the total number of transactions a retailer has incurred\n     */\n    function getNumTransactions() public constant returns (uint) {\n        return numTransactions;\n    }\n\n}",
  "sourcePath": "/Users/WilliamHuang/Developer/Job-Development/Fourier/Fourier Solutions/contracts/Retailer.sol",
  "compiler": {
    "name": "solc",
    "version": "0.4.18+commit.9cf6e910.Emscripten.clang"
  },
  "schemaVersion": "1.0.1",
  "updatedAt": "2018-02-02T02:04:48.645Z"
}