{
  "contractName": "RetailerRegistry",
  "abi": [
    {
      "constant": false,
      "inputs": [
        {
          "name": "_retailerName",
          "type": "string"
        }
      ],
      "name": "createRetailer",
      "outputs": [],
      "payable": false,
      "stateMutability": "nonpayable",
      "type": "function"
    },
    {
      "constant": true,
      "inputs": [
        {
          "name": "_retailerId",
          "type": "uint256"
        }
      ],
      "name": "getRetailer",
      "outputs": [
        {
          "name": "",
          "type": "address"
        }
      ],
      "payable": false,
      "stateMutability": "view",
      "type": "function"
    },
    {
      "constant": true,
      "inputs": [],
      "name": "owner",
      "outputs": [
        {
          "name": "",
          "type": "address"
        }
      ],
      "payable": false,
      "stateMutability": "view",
      "type": "function"
    },
    {
      "constant": false,
      "inputs": [
        {
          "name": "_retailerId",
          "type": "uint256"
        }
      ],
      "name": "withdrawAll",
      "outputs": [],
      "payable": false,
      "stateMutability": "nonpayable",
      "type": "function"
    },
    {
      "constant": false,
      "inputs": [
        {
          "name": "_amount",
          "type": "uint256"
        }
      ],
      "name": "withdrawFromWallet",
      "outputs": [],
      "payable": false,
      "stateMutability": "nonpayable",
      "type": "function"
    },
    {
      "constant": false,
      "inputs": [
        {
          "name": "_newOwner",
          "type": "address"
        }
      ],
      "name": "changeOwner",
      "outputs": [],
      "payable": false,
      "stateMutability": "nonpayable",
      "type": "function"
    },
    {
      "constant": true,
      "inputs": [
        {
          "name": "_retailerId",
          "type": "uint256"
        }
      ],
      "name": "checkRetailerBalance",
      "outputs": [
        {
          "name": "",
          "type": "uint256"
        }
      ],
      "payable": false,
      "stateMutability": "view",
      "type": "function"
    },
    {
      "constant": true,
      "inputs": [],
      "name": "numRetailers",
      "outputs": [
        {
          "name": "",
          "type": "uint256"
        }
      ],
      "payable": false,
      "stateMutability": "view",
      "type": "function"
    },
    {
      "constant": true,
      "inputs": [
        {
          "name": "_retailerId",
          "type": "uint256"
        }
      ],
      "name": "getRetailerDetails",
      "outputs": [
        {
          "name": "_balance",
          "type": "uint256"
        },
        {
          "name": "_address",
          "type": "address"
        },
        {
          "name": "_name",
          "type": "string"
        }
      ],
      "payable": false,
      "stateMutability": "view",
      "type": "function"
    },
    {
      "constant": true,
      "inputs": [],
      "name": "checkBalance",
      "outputs": [
        {
          "name": "",
          "type": "uint256"
        }
      ],
      "payable": false,
      "stateMutability": "view",
      "type": "function"
    },
    {
      "constant": false,
      "inputs": [
        {
          "name": "_retailerId",
          "type": "uint256"
        },
        {
          "name": "_amount",
          "type": "uint256"
        }
      ],
      "name": "withdrawLimited",
      "outputs": [],
      "payable": false,
      "stateMutability": "nonpayable",
      "type": "function"
    },
    {
      "constant": true,
      "inputs": [
        {
          "name": "_retailerId",
          "type": "uint256"
        }
      ],
      "name": "getRetailerName",
      "outputs": [
        {
          "name": "",
          "type": "string"
        }
      ],
      "payable": false,
      "stateMutability": "view",
      "type": "function"
    },
    {
      "constant": true,
      "inputs": [
        {
          "name": "_retailerName",
          "type": "string"
        }
      ],
      "name": "getRetailerId",
      "outputs": [
        {
          "name": "",
          "type": "uint256"
        }
      ],
      "payable": false,
      "stateMutability": "view",
      "type": "function"
    },
    {
      "payable": true,
      "stateMutability": "payable",
      "type": "fallback"
    },
    {
      "anonymous": false,
      "inputs": [
        {
          "indexed": false,
          "name": "retailerId",
          "type": "uint256"
        },
        {
          "indexed": false,
          "name": "retailerName",
          "type": "string"
        },
        {
          "indexed": false,
          "name": "retailerAddress",
          "type": "address"
        }
      ],
      "name": "RetailerCreated",
      "type": "event"
    },
    {
      "anonymous": false,
      "inputs": [
        {
          "indexed": true,
          "name": "retailerId",
          "type": "uint256"
        },
        {
          "indexed": false,
          "name": "amount",
          "type": "uint256"
        }
      ],
      "name": "Withdrawal",
      "type": "event"
    },
    {
      "anonymous": false,
      "inputs": [
        {
          "indexed": false,
          "name": "amount",
          "type": "uint256"
        }
      ],
      "name": "WithdrawalFromWallet",
      "type": "event"
    }
  ],
  "bytecode": "0x6060604052336000806101000a81548173ffffffffffffffffffffffffffffffffffffffff021916908373ffffffffffffffffffffffffffffffffffffffff160217905550611a89806100536000396000f3006060604052600436106100c5576000357c0100000000000000000000000000000000000000000000000000000000900463ffffffff16806372499eb2146100c757806389d86c5d146101245780638da5cb5b14610187578063958e2d31146101dc5780639954d3fa146101ff578063a6f9dae114610222578063b32aef201461025b578063bcebf21414610292578063be193fcb146102bb578063c71daccb14610391578063cad9ef1a146103ba578063e42cafa1146103e6578063eee8249314610482575b005b34156100d257600080fd5b610122600480803590602001908201803590602001908080601f016020809104026020016040519081016040528093929190818152602001838380828437820191505050505050919050506104f3565b005b341561012f57600080fd5b6101456004808035906020019091905050610854565b604051808273ffffffffffffffffffffffffffffffffffffffff1673ffffffffffffffffffffffffffffffffffffffff16815260200191505060405180910390f35b341561019257600080fd5b61019a610891565b604051808273ffffffffffffffffffffffffffffffffffffffff1673ffffffffffffffffffffffffffffffffffffffff16815260200191505060405180910390f35b34156101e757600080fd5b6101fd60048080359060200190919050506108b6565b005b341561020a57600080fd5b6102206004808035906020019091905050610aa1565b005b341561022d57600080fd5b610259600480803573ffffffffffffffffffffffffffffffffffffffff16906020019091905050610bc9565b005b341561026657600080fd5b61027c6004808035906020019091905050610c67565b6040518082815260200191505060405180910390f35b341561029d57600080fd5b6102a5610d2a565b6040518082815260200191505060405180910390f35b34156102c657600080fd5b6102dc6004808035906020019091905050610d30565b604051808481526020018373ffffffffffffffffffffffffffffffffffffffff1673ffffffffffffffffffffffffffffffffffffffff16815260200180602001828103825283818151815260200191508051906020019080838360005b83811015610354578082015181840152602081019050610339565b50505050905090810190601f1680156103815780820380516001836020036101000a031916815260200191505b5094505050505060405180910390f35b341561039c57600080fd5b6103a4610ee2565b6040518082815260200191505060405180910390f35b34156103c557600080fd5b6103e46004808035906020019091908035906020019091905050610f01565b005b34156103f157600080fd5b61040760048080359060200190919050506110ed565b6040518080602001828103825283818151815260200191508051906020019080838360005b8381101561044757808201518184015260208101905061042c565b50505050905090810190601f1680156104745780820380516001836020036101000a031916815260200191505b509250505060405180910390f35b341561048d57600080fd5b6104dd600480803590602001908201803590602001908080601f016020809104026020016040519081016040528093929190818152602001838380828437820191505050505050919050506111a8565b6040518082815260200191505060405180910390f35b60008060009054906101000a900473ffffffffffffffffffffffffffffffffffffffff1673ffffffffffffffffffffffffffffffffffffffff163373ffffffffffffffffffffffffffffffffffffffff1614151561055057600080fd5b6000825111151561056057600080fd5b60006004836040518082805190602001908083835b60208310151561059a5780518252602082019150602081019050602083039250610575565b6001836020036101000a0380198251168184511680821785525050505050509050019150509081526020016040518091039020541415156105da57600080fd5b600160008154809291906001019190505550600154826105f861121d565b8083815260200180602001828103825283818151815260200191508051906020019080838360005b8381101561063b578082015181840152602081019050610620565b50505050905090810190601f1680156106685780820380516001836020036101000a031916815260200191505b509350505050604051809103906000f080151561068457600080fd5b90508060026000600154815260200190815260200160002060006101000a81548173ffffffffffffffffffffffffffffffffffffffff021916908373ffffffffffffffffffffffffffffffffffffffff16021790555081600360006001548152602001908152602001600020908051906020019061070392919061122d565b506001546004836040518082805190602001908083835b60208310151561073f578051825260208201915060208101905060208303925061071a565b6001836020036101000a0380198251168184511680821785525050505050509050019150509081526020016040518091039020819055507f2b5c260990e676a53b9626a30993cc67b72efe88a9eaee456c01b0c3db179295600154838360405180848152602001806020018373ffffffffffffffffffffffffffffffffffffffff1673ffffffffffffffffffffffffffffffffffffffff168152602001828103825284818151815260200191508051906020019080838360005b838110156108145780820151818401526020810190506107f9565b50505050905090810190601f1680156108415780820380516001836020036101000a031916815260200191505b5094505050505060405180910390a15050565b60006002600083815260200190815260200160002060009054906101000a900473ffffffffffffffffffffffffffffffffffffffff169050919050565b6000809054906101000a900473ffffffffffffffffffffffffffffffffffffffff1681565b6000806000809054906101000a900473ffffffffffffffffffffffffffffffffffffffff1673ffffffffffffffffffffffffffffffffffffffff163373ffffffffffffffffffffffffffffffffffffffff1614151561091457600080fd5b6002600084815260200190815260200160002060009054906101000a900473ffffffffffffffffffffffffffffffffffffffff1691508173ffffffffffffffffffffffffffffffffffffffff166322b272916000604051602001526040518163ffffffff167c0100000000000000000000000000000000000000000000000000000000028152600401602060405180830381600087803b15156109b657600080fd5b6102c65a03f115156109c757600080fd5b5050506040518051905090506000811115156109e257600080fd5b8173ffffffffffffffffffffffffffffffffffffffff1663873dc5e6826040518263ffffffff167c010000000000000000000000000000000000000000000000000000000002815260040180828152602001915050600060405180830381600087803b1515610a5057600080fd5b6102c65a03f11515610a6157600080fd5b505050827fbf2ed60bd5b5965d685680c01195c9514e4382e28e3a5a2d2d5244bf59411b93826040518082815260200191505060405180910390a2505050565b6000809054906101000a900473ffffffffffffffffffffffffffffffffffffffff1673ffffffffffffffffffffffffffffffffffffffff163373ffffffffffffffffffffffffffffffffffffffff16141515610afc57600080fd5b600081118015610b235750803073ffffffffffffffffffffffffffffffffffffffff163110155b1515610b2e57600080fd5b6000809054906101000a900473ffffffffffffffffffffffffffffffffffffffff1673ffffffffffffffffffffffffffffffffffffffff166108fc829081150290604051600060405180830381858888f193505050501515610b8f57600080fd5b7f2f3e5a73c5c65d61592f57cbb5405a7b7961a10ec0717e08e90c86fe95a36156816040518082815260200191505060405180910390a150565b6000809054906101000a900473ffffffffffffffffffffffffffffffffffffffff1673ffffffffffffffffffffffffffffffffffffffff163373ffffffffffffffffffffffffffffffffffffffff16141515610c2457600080fd5b806000806101000a81548173ffffffffffffffffffffffffffffffffffffffff021916908373ffffffffffffffffffffffffffffffffffffffff16021790555050565b60006002600083815260200190815260200160002060009054906101000a900473ffffffffffffffffffffffffffffffffffffffff1673ffffffffffffffffffffffffffffffffffffffff166322b272916000604051602001526040518163ffffffff167c0100000000000000000000000000000000000000000000000000000000028152600401602060405180830381600087803b1515610d0857600080fd5b6102c65a03f11515610d1957600080fd5b505050604051805190509050919050565b60015481565b600080610d3b6112ad565b6002600085815260200190815260200160002060009054906101000a900473ffffffffffffffffffffffffffffffffffffffff1673ffffffffffffffffffffffffffffffffffffffff166322b272916000604051602001526040518163ffffffff167c0100000000000000000000000000000000000000000000000000000000028152600401602060405180830381600087803b1515610dda57600080fd5b6102c65a03f11515610deb57600080fd5b5050506040518051905092506002600085815260200190815260200160002060009054906101000a900473ffffffffffffffffffffffffffffffffffffffff169150600360008581526020019081526020016000208054600181600116156101000203166002900480601f016020809104026020016040519081016040528092919081815260200182805460018160011615610100020316600290048015610ed45780601f10610ea957610100808354040283529160200191610ed4565b820191906000526020600020905b815481529060010190602001808311610eb757829003601f168201915b505050505090509193909250565b60003073ffffffffffffffffffffffffffffffffffffffff1631905090565b6000806000809054906101000a900473ffffffffffffffffffffffffffffffffffffffff1673ffffffffffffffffffffffffffffffffffffffff163373ffffffffffffffffffffffffffffffffffffffff16141515610f5f57600080fd5b6002600085815260200190815260200160002060009054906101000a900473ffffffffffffffffffffffffffffffffffffffff1691508173ffffffffffffffffffffffffffffffffffffffff166322b272916000604051602001526040518163ffffffff167c0100000000000000000000000000000000000000000000000000000000028152600401602060405180830381600087803b151561100157600080fd5b6102c65a03f1151561101257600080fd5b50505060405180519050905082811015151561102d57600080fd5b8173ffffffffffffffffffffffffffffffffffffffff1663873dc5e6846040518263ffffffff167c010000000000000000000000000000000000000000000000000000000002815260040180828152602001915050600060405180830381600087803b151561109b57600080fd5b6102c65a03f115156110ac57600080fd5b505050837fbf2ed60bd5b5965d685680c01195c9514e4382e28e3a5a2d2d5244bf59411b93846040518082815260200191505060405180910390a250505050565b6110f56112ad565b600360008381526020019081526020016000208054600181600116156101000203166002900480601f01602080910402602001604051908101604052809291908181526020018280546001816001161561010002031660029004801561119c5780601f106111715761010080835404028352916020019161119c565b820191906000526020600020905b81548152906001019060200180831161117f57829003601f168201915b50505050509050919050565b60006004826040518082805190602001908083835b6020831015156111e257805182526020820191506020810190506020830392506111bd565b6001836020036101000a0380198251168184511680821785525050505050509050019150509081526020016040518091039020549050919050565b604051610777806112e783390190565b828054600181600116156101000203166002900490600052602060002090601f016020900481019282601f1061126e57805160ff191683800117855561129c565b8280016001018555821561129c579182015b8281111561129b578251825591602001919060010190611280565b5b5090506112a991906112c1565b5090565b602060405190810160405280600081525090565b6112e391905b808211156112df5760008160009055506001016112c7565b5090565b9056006060604052341561000f57600080fd5b60405161077738038061077783398101604052808051906020019091908051820191905050336000806101000a81548173ffffffffffffffffffffffffffffffffffffffff021916908373ffffffffffffffffffffffffffffffffffffffff160217905550816002819055508060019080519060200190610091929190610099565b50505061013e565b828054600181600116156101000203166002900490600052602060002090601f016020900481019282601f106100da57805160ff1916838001178555610108565b82800160010185558215610108579182015b828111156101075782518255916020019190600101906100ec565b5b5090506101159190610119565b5090565b61013b91905b8082111561013757600081600090555060010161011f565b5090565b90565b61062a8061014d6000396000f30060606040526004361061008e576000357c0100000000000000000000000000000000000000000000000000000000900463ffffffff16806322b27291146100985780634cf32de3146100c1578063873dc5e6146100ea5780638da5cb5b1461010d578063a5c72c2014610162578063a6f9dae11461016c578063d88da486146101a5578063e0305f84146101ce575b61009661025c565b005b34156100a357600080fd5b6100ab6102e8565b6040518082815260200191505060405180910390f35b34156100cc57600080fd5b6100d4610362565b6040518082815260200191505060405180910390f35b34156100f557600080fd5b61010b600480803590602001909190505061036c565b005b341561011857600080fd5b610120610497565b604051808273ffffffffffffffffffffffffffffffffffffffff1673ffffffffffffffffffffffffffffffffffffffff16815260200191505060405180910390f35b61016a61025c565b005b341561017757600080fd5b6101a3600480803573ffffffffffffffffffffffffffffffffffffffff169060200190919050506104bc565b005b34156101b057600080fd5b6101b861055a565b6040518082815260200191505060405180910390f35b34156101d957600080fd5b6101e1610560565b6040518080602001828103825283818151815260200191508051906020019080838360005b83811015610221578082015181840152602081019050610206565b50505050905090810190601f16801561024e5780820380516001836020036101000a031916815260200191505b509250505060405180910390f35b6003600081548092919060010191905055506002547f091067d64cf49c09b3bb1ece4d4ec072e3e57539ca64d65e9fd6ea3aba26cb5f6003543433604051808481526020018381526020018273ffffffffffffffffffffffffffffffffffffffff1673ffffffffffffffffffffffffffffffffffffffff168152602001935050505060405180910390a2565b60008060009054906101000a900473ffffffffffffffffffffffffffffffffffffffff1673ffffffffffffffffffffffffffffffffffffffff163373ffffffffffffffffffffffffffffffffffffffff1614151561034557600080fd5b3073ffffffffffffffffffffffffffffffffffffffff1631905090565b6000600354905090565b6000809054906101000a900473ffffffffffffffffffffffffffffffffffffffff1673ffffffffffffffffffffffffffffffffffffffff163373ffffffffffffffffffffffffffffffffffffffff161415156103c757600080fd5b6000811115156103d657600080fd5b803073ffffffffffffffffffffffffffffffffffffffff1631101515156103fc57600080fd5b6000809054906101000a900473ffffffffffffffffffffffffffffffffffffffff1673ffffffffffffffffffffffffffffffffffffffff166108fc829081150290604051600060405180830381858888f19350505050151561045d57600080fd5b7f4b694a1d9ed8ba48850b2d26fdfdc5a6f1e16a27c22b46410f5c86e52756f19e816040518082815260200191505060405180910390a150565b6000809054906101000a900473ffffffffffffffffffffffffffffffffffffffff1681565b6000809054906101000a900473ffffffffffffffffffffffffffffffffffffffff1673ffffffffffffffffffffffffffffffffffffffff163373ffffffffffffffffffffffffffffffffffffffff1614151561051757600080fd5b806000806101000a81548173ffffffffffffffffffffffffffffffffffffffff021916908373ffffffffffffffffffffffffffffffffffffffff16021790555050565b60025481565b60018054600181600116156101000203166002900480601f0160208091040260200160405190810160405280929190818152602001828054600181600116156101000203166002900480156105f65780601f106105cb576101008083540402835291602001916105f6565b820191906000526020600020905b8154815290600101906020018083116105d957829003601f168201915b5050505050815600a165627a7a723058201e81fc514dd856b8a9d074f6ef52f0979e3ec3bbd901d49240fed6f48351e8be0029a165627a7a723058203bcdf47f52fb73af9140b3abb15a1a7ae614c9927d15e3fbf10144fe73eb2cbe0029",
  "source": "pragma solidity ^0.4.18;\n\nimport \"./Retailer.sol\";\n\n/**\n * @title Retailer\n * @dev Contract for a a registry of retailers\n */\n\ncontract RetailerRegistry is Ownable {\n\n    uint public numRetailers;\n\n    mapping (uint => address) retailerMapping;\n\n    mapping (uint => string) retailerNameMapping;\n    mapping (string => uint) retailerIdMapping;\n\n    // EVENTS\n    event RetailerCreated(uint retailerId, string retailerName, address retailerAddress);\n    event Withdrawal(uint indexed retailerId, uint amount);\n    event WithdrawalFromWallet(uint amount);\n\n    function createRetailer(string _retailerName) onlyOwner public {\n\n        require(bytes(_retailerName).length > 0);\n        require(retailerIdMapping[_retailerName] == 0);\n\n        numRetailers++;\n\n        Retailer retailerAddress = new Retailer(numRetailers, _retailerName);\n        retailerMapping[numRetailers] = retailerAddress;\n\n        retailerNameMapping[numRetailers] = _retailerName;\n        retailerIdMapping[_retailerName] = numRetailers;\n\n        RetailerCreated(numRetailers, _retailerName, retailerAddress);\n\n    }\n\n    function withdrawAll(uint _retailerId) onlyOwner public {\n        Retailer retailer = Retailer(retailerMapping[_retailerId]);\n        uint balance = retailer.getFourierBalance();\n        require(balance > 0);\n        retailer.fourierWithdraw(balance);\n        Withdrawal(_retailerId, balance);\n    }\n\n    function withdrawLimited(uint _retailerId, uint _amount) onlyOwner public {\n        Retailer retailer = Retailer(retailerMapping[_retailerId]);\n        uint balance = retailer.getFourierBalance();\n        require(balance >= _amount);\n        retailer.fourierWithdraw(_amount);\n        Withdrawal(_retailerId, _amount);\n    }\n\n    function withdrawFromWallet(uint _amount) onlyOwner public {\n\n        require(_amount > 0 && this.balance >= _amount);\n\n        owner.transfer(_amount);\n\n        WithdrawalFromWallet(_amount);\n\n    }\n\n    function checkRetailerBalance(uint _retailerId) public constant returns (uint) {\n        return Retailer(retailerMapping[_retailerId]).getFourierBalance();\n    }\n\n    function checkBalance() public constant returns (uint) {\n        return this.balance;\n    }\n\n    function getRetailer(uint _retailerId) public constant returns (address) {\n        return retailerMapping[_retailerId];\n    }\n\n    function getRetailerId(string _retailerName) public constant returns (uint) {\n        return retailerIdMapping[_retailerName];\n    }\n\n    function getRetailerName(uint _retailerId) public constant returns (string) {\n        return retailerNameMapping[_retailerId];\n    }\n\n    function getRetailerDetails(uint _retailerId) public constant returns (uint _balance, address _address, string _name) {\n        _balance = Retailer(retailerMapping[_retailerId]).getFourierBalance();\n        _address = retailerMapping[_retailerId];\n        _name = retailerNameMapping[_retailerId];\n    }\n\n    function () public payable {\n\n    }\n\n}\n",
  "sourcePath": "/Users/WilliamHuang/Developer/Job-Development/Fourier/Fourier Solutions/contracts/RetailerRegistry.sol",
  "compiler": {
    "name": "solc",
    "version": "0.4.18+commit.9cf6e910.Emscripten.clang"
  },
  "schemaVersion": "1.0.1",
  "updatedAt": "2018-02-02T02:11:04.897Z"
}